{"contracts/voter.sol":{"Voter":{"abi":[{"inputs":[],"name":"getAgainst","outputs":[{"internalType":"uint256","name":"","type":"uint256"}],"stateMutability":"view","type":"function"},{"inputs":[],"name":"getFor","outputs":[{"internalType":"uint256","name":"","type":"uint256"}],"stateMutability":"view","type":"function"},{"inputs":[],"name":"voteAgainst","outputs":[],"stateMutability":"nonpayable","type":"function"},{"inputs":[],"name":"voteFor","outputs":[],"stateMutability":"nonpayable","type":"function"}],"evm":{"bytecode":{"linkReferences":{},"object":"608060405234801561001057600080fd5b506101b7806100206000396000f3fe608060405234801561001057600080fd5b506004361061004c5760003560e01c8063806ec6f7146100515780638591cdd61461006f5780639f396cff1461008d578063ffaa360814610097575b600080fd5b6100596100a1565b6040516100669190610103565b60405180910390f35b6100776100ab565b6040516100849190610103565b60405180910390f35b6100956100b4565b005b61009f6100cf565b005b6000600154905090565b60008054905090565b60018060008282546100c6919061014d565b92505081905550565b60016000808282546100e1919061014d565b92505081905550565b6000819050919050565b6100fd816100ea565b82525050565b600060208201905061011860008301846100f4565b92915050565b7f4e487b7100000000000000000000000000000000000000000000000000000000600052601160045260246000fd5b6000610158826100ea565b9150610163836100ea565b925082820190508082111561017b5761017a61011e565b5b9291505056fea2646970667358221220fce66962594aa2c75a54e8e7308ce124e482eee981b7c831dd8b5dd311111cf264736f6c63430008120033","opcodes":"PUSH1 0x80 PUSH1 0x40 MSTORE CALLVALUE DUP1 ISZERO PUSH2 0x10 JUMPI PUSH1 0x0 DUP1 REVERT JUMPDEST POP PUSH2 0x1B7 DUP1 PUSH2 0x20 PUSH1 0x0 CODECOPY PUSH1 0x0 RETURN INVALID PUSH1 0x80 PUSH1 0x40 MSTORE CALLVALUE DUP1 ISZERO PUSH2 0x10 JUMPI PUSH1 0x0 DUP1 REVERT JUMPDEST POP PUSH1 0x4 CALLDATASIZE LT PUSH2 0x4C JUMPI PUSH1 0x0 CALLDATALOAD PUSH1 0xE0 SHR DUP1 PUSH4 0x806EC6F7 EQ PUSH2 0x51 JUMPI DUP1 PUSH4 0x8591CDD6 EQ PUSH2 0x6F JUMPI DUP1 PUSH4 0x9F396CFF EQ PUSH2 0x8D JUMPI DUP1 PUSH4 0xFFAA3608 EQ PUSH2 0x97 JUMPI JUMPDEST PUSH1 0x0 DUP1 REVERT JUMPDEST PUSH2 0x59 PUSH2 0xA1 JUMP JUMPDEST PUSH1 0x40 MLOAD PUSH2 0x66 SWAP2 SWAP1 PUSH2 0x103 JUMP JUMPDEST PUSH1 0x40 MLOAD DUP1 SWAP2 SUB SWAP1 RETURN JUMPDEST PUSH2 0x77 PUSH2 0xAB JUMP JUMPDEST PUSH1 0x40 MLOAD PUSH2 0x84 SWAP2 SWAP1 PUSH2 0x103 JUMP JUMPDEST PUSH1 0x40 MLOAD DUP1 SWAP2 SUB SWAP1 RETURN JUMPDEST PUSH2 0x95 PUSH2 0xB4 JUMP JUMPDEST STOP JUMPDEST PUSH2 0x9F PUSH2 0xCF JUMP JUMPDEST STOP JUMPDEST PUSH1 0x0 PUSH1 0x1 SLOAD SWAP1 POP SWAP1 JUMP JUMPDEST PUSH1 0x0 DUP1 SLOAD SWAP1 POP SWAP1 JUMP JUMPDEST PUSH1 0x1 DUP1 PUSH1 0x0 DUP3 DUP3 SLOAD PUSH2 0xC6 SWAP2 SWAP1 PUSH2 0x14D JUMP JUMPDEST SWAP3 POP POP DUP2 SWAP1 SSTORE POP JUMP JUMPDEST PUSH1 0x1 PUSH1 0x0 DUP1 DUP3 DUP3 SLOAD PUSH2 0xE1 SWAP2 SWAP1 PUSH2 0x14D JUMP JUMPDEST SWAP3 POP POP DUP2 SWAP1 SSTORE POP JUMP JUMPDEST PUSH1 0x0 DUP2 SWAP1 POP SWAP2 SWAP1 POP JUMP JUMPDEST PUSH2 0xFD DUP2 PUSH2 0xEA JUMP JUMPDEST DUP3 MSTORE POP POP JUMP JUMPDEST PUSH1 0x0 PUSH1 0x20 DUP3 ADD SWAP1 POP PUSH2 0x118 PUSH1 0x0 DUP4 ADD DUP5 PUSH2 0xF4 JUMP JUMPDEST SWAP3 SWAP2 POP POP JUMP JUMPDEST PUSH32 0x4E487B7100000000000000000000000000000000000000000000000000000000 PUSH1 0x0 MSTORE PUSH1 0x11 PUSH1 0x4 MSTORE PUSH1 0x24 PUSH1 0x0 REVERT JUMPDEST PUSH1 0x0 PUSH2 0x158 DUP3 PUSH2 0xEA JUMP JUMPDEST SWAP2 POP PUSH2 0x163 DUP4 PUSH2 0xEA JUMP JUMPDEST SWAP3 POP DUP3 DUP3 ADD SWAP1 POP DUP1 DUP3 GT ISZERO PUSH2 0x17B JUMPI PUSH2 0x17A PUSH2 0x11E JUMP JUMPDEST JUMPDEST SWAP3 SWAP2 POP POP JUMP INVALID LOG2 PUSH5 0x6970667358 0x22 SLT KECCAK256 0xFC 0xE6 PUSH10 0x62594AA2C75A54E8E730 DUP13 0xE1 0x24 0xE4 DUP3 0xEE 0xE9 DUP2 0xB7 0xC8 BALANCE 0xDD DUP12 0x5D 0xD3 GT GT SHR CALLCODE PUSH5 0x736F6C6343 STOP ADDMOD SLT STOP CALLER "},"methodIdentifiers":{"getAgainst()":"806ec6f7","getFor()":"8591cdd6","voteAgainst()":"9f396cff","voteFor()":"ffaa3608"}}}}}