{
  "_format": "hh-sol-artifact-1",
  "contractName": "Voter",
  "sourceName": "contracts/voter.sol",
  "abi": [
    {
      "inputs": [],
      "name": "getAgainst",
      "outputs": [
        {
          "internalType": "uint256",
          "name": "",
          "type": "uint256"
        }
      ],
      "stateMutability": "view",
      "type": "function"
    },
    {
      "inputs": [],
      "name": "getFor",
      "outputs": [
        {
          "internalType": "uint256",
          "name": "",
          "type": "uint256"
        }
      ],
      "stateMutability": "view",
      "type": "function"
    },
    {
      "inputs": [],
      "name": "voteAgainst",
      "outputs": [],
      "stateMutability": "nonpayable",
      "type": "function"
    },
    {
      "inputs": [],
      "name": "voteFor",
      "outputs": [],
      "stateMutability": "nonpayable",
      "type": "function"
    }
  ],
  "bytecode": "0x608060405234801561001057600080fd5b506101b7806100206000396000f3fe608060405234801561001057600080fd5b506004361061004c5760003560e01c8063806ec6f7146100515780638591cdd61461006f5780639f396cff1461008d578063ffaa360814610097575b600080fd5b6100596100a1565b6040516100669190610103565b60405180910390f35b6100776100ab565b6040516100849190610103565b60405180910390f35b6100956100b4565b005b61009f6100cf565b005b6000600154905090565b60008054905090565b60018060008282546100c6919061014d565b92505081905550565b60016000808282546100e1919061014d565b92505081905550565b6000819050919050565b6100fd816100ea565b82525050565b600060208201905061011860008301846100f4565b92915050565b7f4e487b7100000000000000000000000000000000000000000000000000000000600052601160045260246000fd5b6000610158826100ea565b9150610163836100ea565b925082820190508082111561017b5761017a61011e565b5b9291505056fea2646970667358221220fce66962594aa2c75a54e8e7308ce124e482eee981b7c831dd8b5dd311111cf264736f6c63430008120033",
  "linkReferences": {},
  "deployedLinkReferences": {}
}